:100000000C945C000C946E000C946E000C946E00CA
:100010000C946E000C946E000C9470000C946E00A6
:100020000C946E000C946E000C946E000C946E0098
:100030000C946E000C946E000C946E000C946E0088
:100040000C9417010C946E000C946E000C946E00CE
:100050000C946E000C946E000C946E000C946E0068
:100060000C946E000C946E00000000080002010069
:100070000003040700000000000000000102040863
:100080001020408001020408102001020408102002
:10009000040404040404040402020202020203032E
:1000A0000303030300000000250028002B000000CC
:1000B0000000240027002A0011241FBECFEFD8E043
:1000C000DEBFCDBF21E0A0E0B1E001C01D92AB30AA
:1000D000B207E1F70E9492020C94A2020C94000075
:1000E0001F920F920FB60F9211248F9388E10FB6D3
:1000F000F89480936000109260000FBE8F910F9073
:100100000FBE0F901F901895CF9381E090E020E8EC
:100110000FB6F89420936100809361000FBEC0E099
:1001200087EF8C0F853040F061E08C2F0E94220217
:1001300060E08C2F0E945B02CF5FC43189F7109280
:100140007A00809164008F6E80936400CF9108954F
:10015000CF938091640080718093640061E08DE0B2
:100160000E945B0268EE73E080E090E00E948401F0
:1001700060E08DE00E945B02C9E061E08C2F0E948C
:10018000220260E08C2F0E945B02CF5FCE30A9F785
:1001900010927A00809164008F6E80936400809149
:1001A000000190910101019690930101809300015B
:1001B00087709927892B31F5809164008071809335
:1001C000640061E08DE00E945B0268EE73E080E015
:1001D00090E00E94840160E08DE00E945B02C9E033
:1001E00061E08C2F0E94220260E08C2F0E945B0253
:1001F000CF5FCE30A9F710927A00809164008F6EA5
:100200008093640014BE88E18093600081E680934F
:100210006000A89583B7817F846083BF83B78160C6
:1002200083BF889583B78E7F83BFCF9108951F9238
:100230000F920FB60F9211242F933F938F939F939A
:10024000AF93BF938091030190910401A0910501A8
:10025000B09106013091020126E0230F2D3720F4E2
:100260000296A11DB11D05C029E8230F0396A11D0B
:10027000B11D209302018093030190930401A09388
:100280000501B09306018091070190910801A091AA
:100290000901B0910A010196A11DB11D80930701CA
:1002A00090930801A0930901B0930A01BF91AF9107
:1002B0009F918F913F912F910F900FBE0F901F90A4
:1002C00018953FB7F8948091070190910801A0918B
:1002D0000901B0910A0126B5A89B05C02F3F19F06E
:1002E0000196A11DB11D3FBF6627782F892F9A2F38
:1002F000620F711D811D911D43E0660F771F881FDE
:10030000991F4A95D1F708958F929F92AF92BF920D
:10031000CF92DF92EF92FF926B017C010E9461010C
:100320004B015C01C114D104E104F104F1F00E941D
:10033000A1020E946101681979098A099B09683E36
:1003400073408105910570F321E0C21AD108E108DC
:10035000F10888EE880E83E0981EA11CB11CC11420
:10036000D104E104F10429F7DDCFFF90EF90DF9095
:10037000CF90BF90AF909F908F900895789484B560
:10038000826084BD84B5816084BD85B5826085BD91
:1003900085B5816085BDEEE6F0E080818160808377
:1003A000E1E8F0E01082808182608083808181605A
:1003B0008083E0E8F0E0808181608083E1EBF0E021
:1003C000808184608083E0EBF0E0808181608083C5
:1003D000EAE7F0E0808184608083808182608083AE
:1003E00080818E7F80838081806880831092C100AD
:1003F0000895833081F028F4813099F08230A1F0A3
:1004000008958730A9F08830B9F08430D1F4809114
:1004100080008F7D03C0809180008F778093800063
:10042000089584B58F7702C084B58F7D84BD08950B
:100430008091B0008F7703C08091B0008F7D809352
:10044000B0000895CF93DF9390E0FC01E458FF4F94
:100450002491FC01E057FF4F8491882349F190E0FB
:10046000880F991FFC01E255FF4FA591B4918C555F
:100470009F4FFC01C591D4919FB7611108C0F894BA
:100480008C91209582238C93888182230AC06230CC
:1004900051F4F8948C91322F309583238C9388817A
:1004A000822B888304C0F8948C91822B8C939FBFFD
:1004B000DF91CF9108950F931F93CF93DF931F92F6
:1004C000CDB7DEB7282F30E0F901E859FF4F84910E
:1004D000F901E458FF4F1491F901E057FF4F0491DF
:1004E0000023C9F0882321F069830E94F901698102
:1004F000E02FF0E0EE0FFF1FEC55FF4FA591B491F8
:100500009FB7F8948C91611103C01095812301C0AD
:10051000812B8C939FBF0F90DF91CF911F910F91F3
:10052000089508950E94BE010E9491020E948400D5
:10053000C0E0D0E00E94A8002097E1F30E940000F4
:08054000F9CF0895F894FFCFF4
:00000001FF
